{
  "_format": "hh-sol-artifact-1",
  "contractName": "CaveV2",
  "sourceName": "contracts/Cave_non_merkle.sol",
  "abi": [
    {
      "inputs": [
        {
          "internalType": "string",
          "name": "_BaseURI",
          "type": "string"
        },
        {
          "internalType": "string",
          "name": "_NotRevealedUri",
          "type": "string"
        },
        {
          "internalType": "address",
          "name": "signerAddress_",
          "type": "address"
        }
      ],
      "stateMutability": "nonpayable",
      "type": "constructor"
    },
    {
      "anonymous": false,
      "inputs": [
        {
          "indexed": true,
          "internalType": "address",
          "name": "owner",
          "type": "address"
        },
        {
          "indexed": true,
          "internalType": "address",
          "name": "approved",
          "type": "address"
        },
        {
          "indexed": true,
          "internalType": "uint256",
          "name": "tokenId",
          "type": "uint256"
        }
      ],
      "name": "Approval",
      "type": "event"
    },
    {
      "anonymous": false,
      "inputs": [
        {
          "indexed": true,
          "internalType": "address",
          "name": "owner",
          "type": "address"
        },
        {
          "indexed": true,
          "internalType": "address",
          "name": "operator",
          "type": "address"
        },
        {
          "indexed": false,
          "internalType": "bool",
          "name": "approved",
          "type": "bool"
        }
      ],
      "name": "ApprovalForAll",
      "type": "event"
    },
    {
      "anonymous": false,
      "inputs": [
        {
          "indexed": true,
          "internalType": "address",
          "name": "previousOwner",
          "type": "address"
        },
        {
          "indexed": true,
          "internalType": "address",
          "name": "newOwner",
          "type": "address"
        }
      ],
      "name": "OwnershipTransferred",
      "type": "event"
    },
    {
      "anonymous": false,
      "inputs": [
        {
          "indexed": true,
          "internalType": "address",
          "name": "from",
          "type": "address"
        },
        {
          "indexed": true,
          "internalType": "address",
          "name": "to",
          "type": "address"
        },
        {
          "indexed": true,
          "internalType": "uint256",
          "name": "tokenId",
          "type": "uint256"
        }
      ],
      "name": "Transfer",
      "type": "event"
    },
    {
      "inputs": [
        {
          "internalType": "address",
          "name": "",
          "type": "address"
        }
      ],
      "name": "Minted",
      "outputs": [
        {
          "internalType": "uint256",
          "name": "",
          "type": "uint256"
        }
      ],
      "stateMutability": "view",
      "type": "function"
    },
    {
      "inputs": [],
      "name": "allowance",
      "outputs": [
        {
          "internalType": "uint256",
          "name": "",
          "type": "uint256"
        }
      ],
      "stateMutability": "view",
      "type": "function"
    },
    {
      "inputs": [
        {
          "internalType": "address",
          "name": "to",
          "type": "address"
        },
        {
          "internalType": "uint256",
          "name": "tokenId",
          "type": "uint256"
        }
      ],
      "name": "approve",
      "outputs": [],
      "stateMutability": "nonpayable",
      "type": "function"
    },
    {
      "inputs": [
        {
          "internalType": "address",
          "name": "owner",
          "type": "address"
        }
      ],
      "name": "balanceOf",
      "outputs": [
        {
          "internalType": "uint256",
          "name": "",
          "type": "uint256"
        }
      ],
      "stateMutability": "view",
      "type": "function"
    },
    {
      "inputs": [],
      "name": "baseExtension",
      "outputs": [
        {
          "internalType": "string",
          "name": "",
          "type": "string"
        }
      ],
      "stateMutability": "view",
      "type": "function"
    },
    {
      "inputs": [],
      "name": "baseURI",
      "outputs": [
        {
          "internalType": "string",
          "name": "",
          "type": "string"
        }
      ],
      "stateMutability": "view",
      "type": "function"
    },
    {
      "inputs": [
        {
          "internalType": "address",
          "name": "_from",
          "type": "address"
        },
        {
          "internalType": "address",
          "name": "_to",
          "type": "address"
        },
        {
          "internalType": "uint256[]",
          "name": "_tokenIds",
          "type": "uint256[]"
        },
        {
          "internalType": "bytes",
          "name": "data_",
          "type": "bytes"
        }
      ],
      "name": "batchSafeTransferFrom",
      "outputs": [],
      "stateMutability": "nonpayable",
      "type": "function"
    },
    {
      "inputs": [
        {
          "internalType": "address",
          "name": "_from",
          "type": "address"
        },
        {
          "internalType": "address",
          "name": "_to",
          "type": "address"
        },
        {
          "internalType": "uint256[]",
          "name": "_tokenIds",
          "type": "uint256[]"
        }
      ],
      "name": "batchTransferFrom",
      "outputs": [],
      "stateMutability": "nonpayable",
      "type": "function"
    },
    {
      "inputs": [
        {
          "internalType": "uint256",
          "name": "tokenId",
          "type": "uint256"
        }
      ],
      "name": "burn",
      "outputs": [],
      "stateMutability": "nonpayable",
      "type": "function"
    },
    {
      "inputs": [
        {
          "internalType": "uint256",
          "name": "tokenId",
          "type": "uint256"
        }
      ],
      "name": "getApproved",
      "outputs": [
        {
          "internalType": "address",
          "name": "",
          "type": "address"
        }
      ],
      "stateMutability": "view",
      "type": "function"
    },
    {
      "inputs": [
        {
          "internalType": "address",
          "name": "owner",
          "type": "address"
        },
        {
          "internalType": "address",
          "name": "operator",
          "type": "address"
        }
      ],
      "name": "isApprovedForAll",
      "outputs": [
        {
          "internalType": "bool",
          "name": "",
          "type": "bool"
        }
      ],
      "stateMutability": "view",
      "type": "function"
    },
    {
      "inputs": [
        {
          "internalType": "address",
          "name": "account",
          "type": "address"
        },
        {
          "internalType": "uint256[]",
          "name": "_tokenIds",
          "type": "uint256[]"
        }
      ],
      "name": "isOwnerOf",
      "outputs": [
        {
          "internalType": "bool",
          "name": "",
          "type": "bool"
        }
      ],
      "stateMutability": "view",
      "type": "function"
    },
    {
      "inputs": [],
      "name": "maxCaveSupply",
      "outputs": [
        {
          "internalType": "uint256",
          "name": "",
          "type": "uint256"
        }
      ],
      "stateMutability": "view",
      "type": "function"
    },
    {
      "inputs": [
        {
          "internalType": "uint256",
          "name": "_mintAmount",
          "type": "uint256"
        },
        {
          "internalType": "bytes",
          "name": "signature",
          "type": "bytes"
        }
      ],
      "name": "mint",
      "outputs": [],
      "stateMutability": "nonpayable",
      "type": "function"
    },
    {
      "inputs": [],
      "name": "name",
      "outputs": [
        {
          "internalType": "string",
          "name": "",
          "type": "string"
        }
      ],
      "stateMutability": "view",
      "type": "function"
    },
    {
      "inputs": [],
      "name": "nftLocked",
      "outputs": [
        {
          "internalType": "bool",
          "name": "",
          "type": "bool"
        }
      ],
      "stateMutability": "view",
      "type": "function"
    },
    {
      "inputs": [],
      "name": "notRevealedUri",
      "outputs": [
        {
          "internalType": "string",
          "name": "",
          "type": "string"
        }
      ],
      "stateMutability": "view",
      "type": "function"
    },
    {
      "inputs": [],
      "name": "owner",
      "outputs": [
        {
          "internalType": "address",
          "name": "",
          "type": "address"
        }
      ],
      "stateMutability": "view",
      "type": "function"
    },
    {
      "inputs": [
        {
          "internalType": "uint256",
          "name": "tokenId",
          "type": "uint256"
        }
      ],
      "name": "ownerOf",
      "outputs": [
        {
          "internalType": "address",
          "name": "",
          "type": "address"
        }
      ],
      "stateMutability": "view",
      "type": "function"
    },
    {
      "inputs": [],
      "name": "renounceOwnership",
      "outputs": [],
      "stateMutability": "nonpayable",
      "type": "function"
    },
    {
      "inputs": [
        {
          "internalType": "bool",
          "name": "_state",
          "type": "bool"
        }
      ],
      "name": "reveal",
      "outputs": [],
      "stateMutability": "nonpayable",
      "type": "function"
    },
    {
      "inputs": [],
      "name": "revealed",
      "outputs": [
        {
          "internalType": "bool",
          "name": "",
          "type": "bool"
        }
      ],
      "stateMutability": "view",
      "type": "function"
    },
    {
      "inputs": [
        {
          "internalType": "address",
          "name": "from",
          "type": "address"
        },
        {
          "internalType": "address",
          "name": "to",
          "type": "address"
        },
        {
          "internalType": "uint256",
          "name": "tokenId",
          "type": "uint256"
        }
      ],
      "name": "safeTransferFrom",
      "outputs": [],
      "stateMutability": "nonpayable",
      "type": "function"
    },
    {
      "inputs": [
        {
          "internalType": "address",
          "name": "from",
          "type": "address"
        },
        {
          "internalType": "address",
          "name": "to",
          "type": "address"
        },
        {
          "internalType": "uint256",
          "name": "tokenId",
          "type": "uint256"
        },
        {
          "internalType": "bytes",
          "name": "_data",
          "type": "bytes"
        }
      ],
      "name": "safeTransferFrom",
      "outputs": [],
      "stateMutability": "nonpayable",
      "type": "function"
    },
    {
      "inputs": [],
      "name": "salelive",
      "outputs": [
        {
          "internalType": "bool",
          "name": "",
          "type": "bool"
        }
      ],
      "stateMutability": "view",
      "type": "function"
    },
    {
      "inputs": [
        {
          "internalType": "address",
          "name": "operator",
          "type": "address"
        },
        {
          "internalType": "bool",
          "name": "approved",
          "type": "bool"
        }
      ],
      "name": "setApprovalForAll",
      "outputs": [],
      "stateMutability": "nonpayable",
      "type": "function"
    },
    {
      "inputs": [
        {
          "internalType": "string",
          "name": "_newBaseExtension",
          "type": "string"
        }
      ],
      "name": "setBaseExtension",
      "outputs": [],
      "stateMutability": "nonpayable",
      "type": "function"
    },
    {
      "inputs": [
        {
          "internalType": "string",
          "name": "_newBaseURI",
          "type": "string"
        }
      ],
      "name": "setBaseURI",
      "outputs": [],
      "stateMutability": "nonpayable",
      "type": "function"
    },
    {
      "inputs": [
        {
          "internalType": "bool",
          "name": "_nftLocked",
          "type": "bool"
        }
      ],
      "name": "setLockState",
      "outputs": [],
      "stateMutability": "nonpayable",
      "type": "function"
    },
    {
      "inputs": [
        {
          "internalType": "string",
          "name": "_notRevealedURI",
          "type": "string"
        }
      ],
      "name": "setNotRevealedURI",
      "outputs": [],
      "stateMutability": "nonpayable",
      "type": "function"
    },
    {
      "inputs": [
        {
          "internalType": "bool",
          "name": "_state",
          "type": "bool"
        }
      ],
      "name": "setSaleState",
      "outputs": [],
      "stateMutability": "nonpayable",
      "type": "function"
    },
    {
      "inputs": [
        {
          "internalType": "bytes4",
          "name": "interfaceId",
          "type": "bytes4"
        }
      ],
      "name": "supportsInterface",
      "outputs": [
        {
          "internalType": "bool",
          "name": "",
          "type": "bool"
        }
      ],
      "stateMutability": "view",
      "type": "function"
    },
    {
      "inputs": [],
      "name": "symbol",
      "outputs": [
        {
          "internalType": "string",
          "name": "",
          "type": "string"
        }
      ],
      "stateMutability": "view",
      "type": "function"
    },
    {
      "inputs": [
        {
          "internalType": "uint256",
          "name": "index",
          "type": "uint256"
        }
      ],
      "name": "tokenByIndex",
      "outputs": [
        {
          "internalType": "uint256",
          "name": "",
          "type": "uint256"
        }
      ],
      "stateMutability": "view",
      "type": "function"
    },
    {
      "inputs": [
        {
          "internalType": "address",
          "name": "owner",
          "type": "address"
        },
        {
          "internalType": "uint256",
          "name": "index",
          "type": "uint256"
        }
      ],
      "name": "tokenOfOwnerByIndex",
      "outputs": [
        {
          "internalType": "uint256",
          "name": "tokenId",
          "type": "uint256"
        }
      ],
      "stateMutability": "view",
      "type": "function"
    },
    {
      "inputs": [
        {
          "internalType": "uint256",
          "name": "tokenId",
          "type": "uint256"
        }
      ],
      "name": "tokenURI",
      "outputs": [
        {
          "internalType": "string",
          "name": "",
          "type": "string"
        }
      ],
      "stateMutability": "view",
      "type": "function"
    },
    {
      "inputs": [],
      "name": "totalSupply",
      "outputs": [
        {
          "internalType": "uint256",
          "name": "",
          "type": "uint256"
        }
      ],
      "stateMutability": "view",
      "type": "function"
    },
    {
      "inputs": [
        {
          "internalType": "address",
          "name": "from",
          "type": "address"
        },
        {
          "internalType": "address",
          "name": "to",
          "type": "address"
        },
        {
          "internalType": "uint256",
          "name": "tokenId",
          "type": "uint256"
        }
      ],
      "name": "transferFrom",
      "outputs": [],
      "stateMutability": "nonpayable",
      "type": "function"
    },
    {
      "inputs": [
        {
          "internalType": "address",
          "name": "newOwner",
          "type": "address"
        }
      ],
      "name": "transferOwnership",
      "outputs": [],
      "stateMutability": "nonpayable",
      "type": "function"
    },
    {
      "inputs": [
        {
          "internalType": "address",
          "name": "_owner",
          "type": "address"
        }
      ],
      "name": "walletOfOwner",
      "outputs": [
        {
          "internalType": "uint256[]",
          "name": "",
          "type": "uint256[]"
        }
      ],
      "stateMutability": "view",
      "type": "function"
    }
  ],
  "bytecode": "0x60806040526040518060400160405280600581526020017f2e6a736f6e000000000000000000000000000000000000000000000000000000815250600790805190602001906200005192919062000450565b506000600b60006101000a81548160ff0219169083151502179055506000600b60016101000a81548160ff0219169083151502179055506001600b60026101000a81548160ff021916908315150217905550348015620000b057600080fd5b5060405162005818380380620058188339818101604052810190620000d6919062000595565b6040518060400160405280600681526020017f43617665763200000000000000000000000000000000000000000000000000008152506040518060400160405280600581526020017f434156453200000000000000000000000000000000000000000000000000000081525081600090805190602001906200015a92919062000450565b5080600190805190602001906200017392919062000450565b505050620001966200018a6200020260201b60201c565b6200020a60201b60201c565b620001a783620002d060201b60201c565b620001b8826200037b60201b60201c565b80600960006101000a81548173ffffffffffffffffffffffffffffffffffffffff021916908373ffffffffffffffffffffffffffffffffffffffff16021790555050505062000884565b600033905090565b6000600560009054906101000a900473ffffffffffffffffffffffffffffffffffffffff16905081600560006101000a81548173ffffffffffffffffffffffffffffffffffffffff021916908373ffffffffffffffffffffffffffffffffffffffff1602179055508173ffffffffffffffffffffffffffffffffffffffff168173ffffffffffffffffffffffffffffffffffffffff167f8be0079c531659141344cd1fd0a4f28419497f9722a3daafe3b4186f6b6457e060405160405180910390a35050565b620002e06200020260201b60201c565b73ffffffffffffffffffffffffffffffffffffffff16620003066200042660201b60201c565b73ffffffffffffffffffffffffffffffffffffffff16146200035f576040517f08c379a0000000000000000000000000000000000000000000000000000000008152600401620003569062000656565b60405180910390fd5b80600690805190602001906200037792919062000450565b5050565b6200038b6200020260201b60201c565b73ffffffffffffffffffffffffffffffffffffffff16620003b16200042660201b60201c565b73ffffffffffffffffffffffffffffffffffffffff16146200040a576040517f08c379a0000000000000000000000000000000000000000000000000000000008152600401620004019062000656565b60405180910390fd5b80600890805190602001906200042292919062000450565b5050565b6000600560009054906101000a900473ffffffffffffffffffffffffffffffffffffffff16905090565b8280546200045e9062000752565b90600052602060002090601f016020900481019282620004825760008555620004ce565b82601f106200049d57805160ff1916838001178555620004ce565b82800160010185558215620004ce579182015b82811115620004cd578251825591602001919060010190620004b0565b5b509050620004dd9190620004e1565b5090565b5b80821115620004fc576000816000905550600101620004e2565b5090565b6000620005176200051184620006a1565b62000678565b90508281526020810184848401111562000536576200053562000821565b5b620005438482856200071c565b509392505050565b6000815190506200055c816200086a565b92915050565b600082601f8301126200057a57620005796200081c565b5b81516200058c84826020860162000500565b91505092915050565b600080600060608486031215620005b157620005b06200082b565b5b600084015167ffffffffffffffff811115620005d257620005d162000826565b5b620005e08682870162000562565b935050602084015167ffffffffffffffff81111562000604576200060362000826565b5b620006128682870162000562565b925050604062000625868287016200054b565b9150509250925092565b60006200063e602083620006d7565b91506200064b8262000841565b602082019050919050565b6000602082019050818103600083015262000671816200062f565b9050919050565b60006200068462000697565b905062000692828262000788565b919050565b6000604051905090565b600067ffffffffffffffff821115620006bf57620006be620007ed565b5b620006ca8262000830565b9050602081019050919050565b600082825260208201905092915050565b6000620006f582620006fc565b9050919050565b600073ffffffffffffffffffffffffffffffffffffffff82169050919050565b60005b838110156200073c5780820151818401526020810190506200071f565b838111156200074c576000848401525b50505050565b600060028204905060018216806200076b57607f821691505b60208210811415620007825762000781620007be565b5b50919050565b620007938262000830565b810181811067ffffffffffffffff82111715620007b557620007b4620007ed565b5b80604052505050565b7f4e487b7100000000000000000000000000000000000000000000000000000000600052602260045260246000fd5b7f4e487b7100000000000000000000000000000000000000000000000000000000600052604160045260246000fd5b600080fd5b600080fd5b600080fd5b600080fd5b6000601f19601f8301169050919050565b7f4f776e61626c653a2063616c6c6572206973206e6f7420746865206f776e6572600082015250565b6200087581620006e8565b81146200088157600080fd5b50565b614f8480620008946000396000f3fe608060405234801561001057600080fd5b50600436106102485760003560e01c806372e5e09b1161013b578063c4e37095116100b8578063de242ff41161007c578063de242ff4146106ed578063e985e9c51461070b578063f2c4ce1e1461073b578063f2fde38b14610757578063f3993d111461077357610248565b8063c4e370951461064b578063c668286214610667578063c87b56dd14610685578063da3ef23f146106b5578063db7fd408146106d157610248565b8063940cd05b116100ff578063940cd05b146105bb57806395d89b41146105d7578063a22cb465146105f5578063b29f4ab714610611578063b88d4fde1461062f57610248565b806372e5e09b1461051557806385c32402146105335780638da5cb5b1461055157806390ddedd51461056f57806393b269631461059f57610248565b8063438b6300116101c95780635a4fee301161018d5780635a4fee30146104715780636352211e1461048d5780636c0360eb146104bd57806370a08231146104db578063715018a61461050b57610248565b8063438b6300146103a75780634d44660c146103d75780634f6ccce714610407578063518302271461043757806355f804b31461045557610248565b806318160ddd1161021057806318160ddd1461030557806323b872dd146103235780632f745c591461033f57806342842e0e1461036f57806342966c681461038b57610248565b806301ffc9a71461024d57806306fdde031461027d578063081812fc1461029b578063081c8c44146102cb578063095ea7b3146102e9575b600080fd5b61026760048036038101906102629190613703565b61078f565b6040516102749190613f1a565b60405180910390f35b610285610809565b6040516102929190613f7a565b60405180910390f35b6102b560048036038101906102b091906137f3565b61089b565b6040516102c29190613e91565b60405180910390f35b6102d3610920565b6040516102e09190613f7a565b60405180910390f35b61030360048036038101906102fe9190613696565b6109ae565b005b61030d610ac6565b60405161031a91906142dc565b60405180910390f35b61033d60048036038101906103389190613520565b610ad3565b005b61035960048036038101906103549190613696565b610b33565b60405161036691906142dc565b60405180910390f35b61038960048036038101906103849190613520565b610c78565b005b6103a560048036038101906103a091906137f3565b610c98565b005b6103c160048036038101906103bc91906133a5565b610cf4565b6040516103ce9190613ef8565b60405180910390f35b6103f160048036038101906103ec91906135f6565b610dfe565b6040516103fe9190613f1a565b60405180910390f35b610421600480360381019061041c91906137f3565b610ebf565b60405161042e91906142dc565b60405180910390f35b61043f610f10565b60405161044c9190613f1a565b60405180910390f35b61046f600480360381019061046a91906137aa565b610f23565b005b61048b60048036038101906104869190613481565b610fb9565b005b6104a760048036038101906104a291906137f3565b611005565b6040516104b49190613e91565b60405180910390f35b6104c56110c2565b6040516104d29190613f7a565b60405180910390f35b6104f560048036038101906104f091906133a5565b611150565b60405161050291906142dc565b60405180910390f35b61051361126c565b005b61051d6112f4565b60405161052a9190613f1a565b60405180910390f35b61053b611307565b6040516105489190613f1a565b60405180910390f35b61055961131a565b6040516105669190613e91565b60405180910390f35b610589600480360381019061058491906133a5565b611344565b60405161059691906142dc565b60405180910390f35b6105b960048036038101906105b491906136d6565b61135c565b005b6105d560048036038101906105d091906136d6565b6113f5565b005b6105df61148e565b6040516105ec9190613f7a565b60405180910390f35b61060f600480360381019061060a9190613656565b611520565b005b6106196116a1565b60405161062691906142dc565b60405180910390f35b61064960048036038101906106449190613573565b6116a6565b005b610665600480360381019061066091906136d6565b611708565b005b61066f6117a1565b60405161067c9190613f7a565b60405180910390f35b61069f600480360381019061069a91906137f3565b61182f565b6040516106ac9190613f7a565b60405180910390f35b6106cf60048036038101906106ca919061375d565b611988565b005b6106eb60048036038101906106e69190613820565b611a1a565b005b6106f5611d0b565b60405161070291906142dc565b60405180910390f35b610725600480360381019061072091906133d2565b611d10565b6040516107329190613f1a565b60405180910390f35b610755600480360381019061075091906137aa565b611da4565b005b610771600480360381019061076c91906133a5565b611e3a565b005b61078d60048036038101906107889190613412565b611f32565b005b60007f780e9d63000000000000000000000000000000000000000000000000000000007bffffffffffffffffffffffffffffffffffffffffffffffffffffffff1916827bffffffffffffffffffffffffffffffffffffffffffffffffffffffff19161480610802575061080182611f7c565b5b9050919050565b606060008054610818906145c3565b80601f0160208091040260200160405190810160405280929190818152602001828054610844906145c3565b80156108915780601f1061086657610100808354040283529160200191610891565b820191906000526020600020905b81548152906001019060200180831161087457829003601f168201915b5050505050905090565b60006108a68261205e565b6108e5576040517f08c379a00000000000000000000000000000000000000000000000000000000081526004016108dc906141fc565b60405180910390fd5b6003600083815260200190815260200160002060009054906101000a900473ffffffffffffffffffffffffffffffffffffffff169050919050565b6008805461092d906145c3565b80601f0160208091040260200160405190810160405280929190818152602001828054610959906145c3565b80156109a65780601f1061097b576101008083540402835291602001916109a6565b820191906000526020600020905b81548152906001019060200180831161098957829003601f168201915b505050505081565b60006109b982611005565b90508073ffffffffffffffffffffffffffffffffffffffff168373ffffffffffffffffffffffffffffffffffffffff161415610a2a576040517f08c379a0000000000000000000000000000000000000000000000000000000008152600401610a219061427c565b60405180910390fd5b8073ffffffffffffffffffffffffffffffffffffffff16610a496120e6565b73ffffffffffffffffffffffffffffffffffffffff161480610a785750610a7781610a726120e6565b611d10565b5b610ab7576040517f08c379a0000000000000000000000000000000000000000000000000000000008152600401610aae9061413c565b60405180910390fd5b610ac183836120ee565b505050565b6000600280549050905090565b610ae4610ade6120e6565b826121a7565b610b23576040517f08c379a0000000000000000000000000000000000000000000000000000000008152600401610b1a9061429c565b60405180910390fd5b610b2e838383612285565b505050565b6000610b3e83611150565b8210610b7f576040517f08c379a0000000000000000000000000000000000000000000000000000000008152600401610b7690613ffc565b60405180910390fd5b6000805b600280549050811015610c365760028181548110610ba457610ba3614766565b5b9060005260206000200160009054906101000a900473ffffffffffffffffffffffffffffffffffffffff1673ffffffffffffffffffffffffffffffffffffffff168573ffffffffffffffffffffffffffffffffffffffff161415610c235783821415610c14578092505050610c72565b8180610c1f90614626565b9250505b8080610c2e90614626565b915050610b83565b506040517f08c379a0000000000000000000000000000000000000000000000000000000008152600401610c6990613ffc565b60405180910390fd5b92915050565b610c93838383604051806020016040528060008152506116a6565b505050565b610ca9610ca36120e6565b826121a7565b610ce8576040517f08c379a0000000000000000000000000000000000000000000000000000000008152600401610cdf9061425c565b60405180910390fd5b610cf18161243e565b50565b60606000610d0183611150565b90506000811415610d5e57600067ffffffffffffffff811115610d2757610d26614795565b5b604051908082528060200260200182016040528015610d555781602001602082028036833780820191505090505b50915050610df9565b60008167ffffffffffffffff811115610d7a57610d79614795565b5b604051908082528060200260200182016040528015610da85781602001602082028036833780820191505090505b50905060005b82811015610df257610dc08582610b33565b828281518110610dd357610dd2614766565b5b6020026020010181815250508080610dea90614626565b915050610dae565b5080925050505b919050565b6000805b83839050811015610eb2578473ffffffffffffffffffffffffffffffffffffffff166002858584818110610e3957610e38614766565b5b9050602002013581548110610e5157610e50614766565b5b9060005260206000200160009054906101000a900473ffffffffffffffffffffffffffffffffffffffff1673ffffffffffffffffffffffffffffffffffffffff1614610ea1576000915050610eb8565b80610eab90614626565b9050610e02565b50600190505b9392505050565b60006002805490508210610f08576040517f08c379a0000000000000000000000000000000000000000000000000000000008152600401610eff906142bc565b60405180910390fd5b819050919050565b600b60009054906101000a900460ff1681565b610f2b6120e6565b73ffffffffffffffffffffffffffffffffffffffff16610f4961131a565b73ffffffffffffffffffffffffffffffffffffffff1614610f9f576040517f08c379a0000000000000000000000000000000000000000000000000000000008152600401610f969061421c565b60405180910390fd5b8060069080519060200190610fb5929190612f93565b5050565b60005b8251811015610ffe57610feb8585858481518110610fdd57610fdc614766565b5b6020026020010151856116a6565b8080610ff690614626565b915050610fbc565b5050505050565b6000806002838154811061101c5761101b614766565b5b9060005260206000200160009054906101000a900473ffffffffffffffffffffffffffffffffffffffff169050600073ffffffffffffffffffffffffffffffffffffffff168173ffffffffffffffffffffffffffffffffffffffff1614156110b9576040517f08c379a00000000000000000000000000000000000000000000000000000000081526004016110b09061419c565b60405180910390fd5b80915050919050565b600680546110cf906145c3565b80601f01602080910402602001604051908101604052809291908181526020018280546110fb906145c3565b80156111485780601f1061111d57610100808354040283529160200191611148565b820191906000526020600020905b81548152906001019060200180831161112b57829003601f168201915b505050505081565b60008073ffffffffffffffffffffffffffffffffffffffff168273ffffffffffffffffffffffffffffffffffffffff1614156111c1576040517f08c379a00000000000000000000000000000000000000000000000000000000081526004016111b89061417c565b60405180910390fd5b6000805b60028054905081101561126257600281815481106111e6576111e5614766565b5b9060005260206000200160009054906101000a900473ffffffffffffffffffffffffffffffffffffffff1673ffffffffffffffffffffffffffffffffffffffff168473ffffffffffffffffffffffffffffffffffffffff161415611251578161124e90614626565b91505b8061125b90614626565b90506111c5565b5080915050919050565b6112746120e6565b73ffffffffffffffffffffffffffffffffffffffff1661129261131a565b73ffffffffffffffffffffffffffffffffffffffff16146112e8576040517f08c379a00000000000000000000000000000000000000000000000000000000081526004016112df9061421c565b60405180910390fd5b6112f26000612520565b565b600b60029054906101000a900460ff1681565b600b60019054906101000a900460ff1681565b6000600560009054906101000a900473ffffffffffffffffffffffffffffffffffffffff16905090565b600a6020528060005260406000206000915090505481565b6113646120e6565b73ffffffffffffffffffffffffffffffffffffffff1661138261131a565b73ffffffffffffffffffffffffffffffffffffffff16146113d8576040517f08c379a00000000000000000000000000000000000000000000000000000000081526004016113cf9061421c565b60405180910390fd5b80600b60026101000a81548160ff02191690831515021790555050565b6113fd6120e6565b73ffffffffffffffffffffffffffffffffffffffff1661141b61131a565b73ffffffffffffffffffffffffffffffffffffffff1614611471576040517f08c379a00000000000000000000000000000000000000000000000000000000081526004016114689061421c565b60405180910390fd5b80600b60006101000a81548160ff02191690831515021790555050565b60606001805461149d906145c3565b80601f01602080910402602001604051908101604052809291908181526020018280546114c9906145c3565b80156115165780601f106114eb57610100808354040283529160200191611516565b820191906000526020600020905b8154815290600101906020018083116114f957829003601f168201915b5050505050905090565b6115286120e6565b73ffffffffffffffffffffffffffffffffffffffff168273ffffffffffffffffffffffffffffffffffffffff161415611596576040517f08c379a000000000000000000000000000000000000000000000000000000000815260040161158d906140bc565b60405180910390fd5b80600460006115a36120e6565b73ffffffffffffffffffffffffffffffffffffffff1673ffffffffffffffffffffffffffffffffffffffff16815260200190815260200160002060008473ffffffffffffffffffffffffffffffffffffffff1673ffffffffffffffffffffffffffffffffffffffff16815260200190815260200160002060006101000a81548160ff0219169083151502179055508173ffffffffffffffffffffffffffffffffffffffff166116506120e6565b73ffffffffffffffffffffffffffffffffffffffff167f17307eab39ab6107e8899845ad3d59bd9653f200f220920489ca2b5937696c31836040516116959190613f1a565b60405180910390a35050565b606581565b6116b76116b16120e6565b836121a7565b6116f6576040517f08c379a00000000000000000000000000000000000000000000000000000000081526004016116ed9061429c565b60405180910390fd5b611702848484846125e6565b50505050565b6117106120e6565b73ffffffffffffffffffffffffffffffffffffffff1661172e61131a565b73ffffffffffffffffffffffffffffffffffffffff1614611784576040517f08c379a000000000000000000000000000000000000000000000000000000000815260040161177b9061421c565b60405180910390fd5b80600b60016101000a81548160ff02191690831515021790555050565b600780546117ae906145c3565b80601f01602080910402602001604051908101604052809291908181526020018280546117da906145c3565b80156118275780601f106117fc57610100808354040283529160200191611827565b820191906000526020600020905b81548152906001019060200180831161180a57829003601f168201915b505050505081565b606061183a8261205e565b611879576040517f08c379a0000000000000000000000000000000000000000000000000000000008152600401611870906140fc565b60405180910390fd5b60001515600b60009054906101000a900460ff161515141561192757600880546118a2906145c3565b80601f01602080910402602001604051908101604052809291908181526020018280546118ce906145c3565b801561191b5780601f106118f05761010080835404028352916020019161191b565b820191906000526020600020905b8154815290600101906020018083116118fe57829003601f168201915b50505050509050611983565b6000611931612642565b90506000815111611951576040518060200160405280600081525061197f565b8061195b846126d4565b600760405160200161196f93929190613e3a565b6040516020818303038152906040525b9150505b919050565b6119906120e6565b73ffffffffffffffffffffffffffffffffffffffff166119ae61131a565b73ffffffffffffffffffffffffffffffffffffffff1614611a04576040517f08c379a00000000000000000000000000000000000000000000000000000000081526004016119fb9061421c565b60405180910390fd5b818160079190611a15929190613019565b505050565b60006002805490509050600284600a60003373ffffffffffffffffffffffffffffffffffffffff1673ffffffffffffffffffffffffffffffffffffffff16815260200190815260200160002054611a71919061443b565b1115611ab2576040517f08c379a0000000000000000000000000000000000000000000000000000000008152600401611aa99061405c565b60405180910390fd5b600b60019054906101000a900460ff16611b01576040517f08c379a0000000000000000000000000000000000000000000000000000000008152600401611af8906141bc565b60405180910390fd5b60658482611b0f919061443b565b10611b4f576040517f08c379a0000000000000000000000000000000000000000000000000000000008152600401611b469061415c565b60405180910390fd5b611be583838080601f016020809104026020016040519081016040528093929190818152602001838380828437600081840152601f19601f820116905080830192505050505050503373ffffffffffffffffffffffffffffffffffffffff1660001b604051602001611bc19190613e6b565b6040516020818303038152906040528051906020012061283590919063ffffffff16565b73ffffffffffffffffffffffffffffffffffffffff16600960009054906101000a900473ffffffffffffffffffffffffffffffffffffffff1673ffffffffffffffffffffffffffffffffffffffff1614611c74576040517f08c379a0000000000000000000000000000000000000000000000000000000008152600401611c6b90613fbc565b60405180910390fd5b60005b84811015611cae57611c9b611c8a6120e6565b8284611c96919061443b565b61285c565b8080611ca690614626565b915050611c77565b5083600a60003373ffffffffffffffffffffffffffffffffffffffff1673ffffffffffffffffffffffffffffffffffffffff1681526020019081526020016000206000828254611cfe919061443b565b9250508190555050505050565b600281565b6000600460008473ffffffffffffffffffffffffffffffffffffffff1673ffffffffffffffffffffffffffffffffffffffff16815260200190815260200160002060008373ffffffffffffffffffffffffffffffffffffffff1673ffffffffffffffffffffffffffffffffffffffff16815260200190815260200160002060009054906101000a900460ff16905092915050565b611dac6120e6565b73ffffffffffffffffffffffffffffffffffffffff16611dca61131a565b73ffffffffffffffffffffffffffffffffffffffff1614611e20576040517f08c379a0000000000000000000000000000000000000000000000000000000008152600401611e179061421c565b60405180910390fd5b8060089080519060200190611e36929190612f93565b5050565b611e426120e6565b73ffffffffffffffffffffffffffffffffffffffff16611e6061131a565b73ffffffffffffffffffffffffffffffffffffffff1614611eb6576040517f08c379a0000000000000000000000000000000000000000000000000000000008152600401611ead9061421c565b60405180910390fd5b600073ffffffffffffffffffffffffffffffffffffffff168173ffffffffffffffffffffffffffffffffffffffff161415611f26576040517f08c379a0000000000000000000000000000000000000000000000000000000008152600401611f1d9061403c565b60405180910390fd5b611f2f81612520565b50565b60005b8151811015611f7657611f638484848481518110611f5657611f55614766565b5b6020026020010151610ad3565b8080611f6e90614626565b915050611f35565b50505050565b60007f80ac58cd000000000000000000000000000000000000000000000000000000007bffffffffffffffffffffffffffffffffffffffffffffffffffffffff1916827bffffffffffffffffffffffffffffffffffffffffffffffffffffffff1916148061204757507f5b5e139f000000000000000000000000000000000000000000000000000000007bffffffffffffffffffffffffffffffffffffffffffffffffffffffff1916827bffffffffffffffffffffffffffffffffffffffffffffffffffffffff1916145b8061205757506120568261291f565b5b9050919050565b6000600280549050821080156120df5750600073ffffffffffffffffffffffffffffffffffffffff166002838154811061209b5761209a614766565b5b9060005260206000200160009054906101000a900473ffffffffffffffffffffffffffffffffffffffff1673ffffffffffffffffffffffffffffffffffffffff1614155b9050919050565b600033905090565b816003600083815260200190815260200160002060006101000a81548173ffffffffffffffffffffffffffffffffffffffff021916908373ffffffffffffffffffffffffffffffffffffffff160217905550808273ffffffffffffffffffffffffffffffffffffffff1661216183611005565b73ffffffffffffffffffffffffffffffffffffffff167f8c5be1e5ebec7d5bd14f71427d1e84f3dd0314c0f7b2291e5b200ac8c7c3b92560405160405180910390a45050565b60006121b28261205e565b6121f1576040517f08c379a00000000000000000000000000000000000000000000000000000000081526004016121e89061411c565b60405180910390fd5b60006121fc83611005565b90508073ffffffffffffffffffffffffffffffffffffffff168473ffffffffffffffffffffffffffffffffffffffff16148061226b57508373ffffffffffffffffffffffffffffffffffffffff166122538461089b565b73ffffffffffffffffffffffffffffffffffffffff16145b8061227c575061227b8185611d10565b5b91505092915050565b8273ffffffffffffffffffffffffffffffffffffffff166122a582611005565b73ffffffffffffffffffffffffffffffffffffffff16146122fb576040517f08c379a00000000000000000000000000000000000000000000000000000000081526004016122f29061423c565b60405180910390fd5b600073ffffffffffffffffffffffffffffffffffffffff168273ffffffffffffffffffffffffffffffffffffffff16141561236b576040517f08c379a00000000000000000000000000000000000000000000000000000000081526004016123629061409c565b60405180910390fd5b612376838383612989565b6123816000826120ee565b816002828154811061239657612395614766565b5b9060005260206000200160006101000a81548173ffffffffffffffffffffffffffffffffffffffff021916908373ffffffffffffffffffffffffffffffffffffffff160217905550808273ffffffffffffffffffffffffffffffffffffffff168473ffffffffffffffffffffffffffffffffffffffff167fddf252ad1be2c89b69c2b068fc378daa952ba7f163c4a11628f55a4df523b3ef60405160405180910390a4505050565b600061244982611005565b905061245781600084612989565b6124626000836120ee565b60006002838154811061247857612477614766565b5b9060005260206000200160006101000a81548173ffffffffffffffffffffffffffffffffffffffff021916908373ffffffffffffffffffffffffffffffffffffffff16021790555081600073ffffffffffffffffffffffffffffffffffffffff168273ffffffffffffffffffffffffffffffffffffffff167fddf252ad1be2c89b69c2b068fc378daa952ba7f163c4a11628f55a4df523b3ef60405160405180910390a45050565b6000600560009054906101000a900473ffffffffffffffffffffffffffffffffffffffff16905081600560006101000a81548173ffffffffffffffffffffffffffffffffffffffff021916908373ffffffffffffffffffffffffffffffffffffffff1602179055508173ffffffffffffffffffffffffffffffffffffffff168173ffffffffffffffffffffffffffffffffffffffff167f8be0079c531659141344cd1fd0a4f28419497f9722a3daafe3b4186f6b6457e060405160405180910390a35050565b6125f1848484612285565b6125fd84848484612a20565b61263c576040517f08c379a00000000000000000000000000000000000000000000000000000000081526004016126339061401c565b60405180910390fd5b50505050565b606060068054612651906145c3565b80601f016020809104026020016040519081016040528092919081815260200182805461267d906145c3565b80156126ca5780601f1061269f576101008083540402835291602001916126ca565b820191906000526020600020905b8154815290600101906020018083116126ad57829003601f168201915b5050505050905090565b6060600082141561271c576040518060400160405280600181526020017f30000000000000000000000000000000000000000000000000000000000000008152509050612830565b600082905060005b6000821461274e57808061273790614626565b915050600a826127479190614491565b9150612724565b60008167ffffffffffffffff81111561276a57612769614795565b5b6040519080825280601f01601f19166020018201604052801561279c5781602001600182028036833780820191505090505b5090505b60008514612829576001826127b591906144c2565b9150600a856127c49190614679565b60306127d0919061443b565b60f81b8183815181106127e6576127e5614766565b5b60200101907effffffffffffffffffffffffffffffffffffffffffffffffffffffffffffff1916908160001a905350600a856128229190614491565b94506127a0565b8093505050505b919050565b60008060006128448585612bb7565b9150915061285181612c3a565b819250505092915050565b6002829080600181540180825580915050600190039060005260206000200160009091909190916101000a81548173ffffffffffffffffffffffffffffffffffffffff021916908373ffffffffffffffffffffffffffffffffffffffff160217905550808273ffffffffffffffffffffffffffffffffffffffff16600073ffffffffffffffffffffffffffffffffffffffff167fddf252ad1be2c89b69c2b068fc378daa952ba7f163c4a11628f55a4df523b3ef60405160405180910390a45050565b60007f01ffc9a7000000000000000000000000000000000000000000000000000000007bffffffffffffffffffffffffffffffffffffffffffffffffffffffff1916827bffffffffffffffffffffffffffffffffffffffffffffffffffffffff1916149050919050565b612994838383612e0f565b600073ffffffffffffffffffffffffffffffffffffffff168373ffffffffffffffffffffffffffffffffffffffff1614806129dc5750600b60029054906101000a900460ff16155b612a1b576040517f08c379a0000000000000000000000000000000000000000000000000000000008152600401612a129061407c565b60405180910390fd5b505050565b6000612a418473ffffffffffffffffffffffffffffffffffffffff16612e14565b15612baa578373ffffffffffffffffffffffffffffffffffffffff1663150b7a02612a6a6120e6565b8786866040518563ffffffff1660e01b8152600401612a8c9493929190613eac565b602060405180830381600087803b158015612aa657600080fd5b505af1925050508015612ad757506040513d601f19601f82011682018060405250810190612ad49190613730565b60015b612b5a573d8060008114612b07576040519150601f19603f3d011682016040523d82523d6000602084013e612b0c565b606091505b50600081511415612b52576040517f08c379a0000000000000000000000000000000000000000000000000000000008152600401612b499061401c565b60405180910390fd5b805181602001fd5b63150b7a0260e01b7bffffffffffffffffffffffffffffffffffffffffffffffffffffffff1916817bffffffffffffffffffffffffffffffffffffffffffffffffffffffff191614915050612baf565b600190505b949350505050565b600080604183511415612bf95760008060006020860151925060408601519150606086015160001a9050612bed87828585612e27565b94509450505050612c33565b604083511415612c2a576000806020850151915060408501519050612c1f868383612f34565b935093505050612c33565b60006002915091505b9250929050565b60006004811115612c4e57612c4d614708565b5b816004811115612c6157612c60614708565b5b1415612c6c57612e0c565b60016004811115612c8057612c7f614708565b5b816004811115612c9357612c92614708565b5b1415612cd4576040517f08c379a0000000000000000000000000000000000000000000000000000000008152600401612ccb90613f9c565b60405180910390fd5b60026004811115612ce857612ce7614708565b5b816004811115612cfb57612cfa614708565b5b1415612d3c576040517f08c379a0000000000000000000000000000000000000000000000000000000008152600401612d3390613fdc565b60405180910390fd5b60036004811115612d5057612d4f614708565b5b816004811115612d6357612d62614708565b5b1415612da4576040517f08c379a0000000000000000000000000000000000000000000000000000000008152600401612d9b906140dc565b60405180910390fd5b600480811115612db757612db6614708565b5b816004811115612dca57612dc9614708565b5b1415612e0b576040517f08c379a0000000000000000000000000000000000000000000000000000000008152600401612e02906141dc565b60405180910390fd5b5b50565b505050565b600080823b905060008111915050919050565b6000807f7fffffffffffffffffffffffffffffff5d576e7357a4501ddfe92f46681b20a08360001c1115612e62576000600391509150612f2b565b601b8560ff1614158015612e7a5750601c8560ff1614155b15612e8c576000600491509150612f2b565b600060018787878760405160008152602001604052604051612eb19493929190613f35565b6020604051602081039080840390855afa158015612ed3573d6000803e3d6000fd5b505050602060405103519050600073ffffffffffffffffffffffffffffffffffffffff168173ffffffffffffffffffffffffffffffffffffffff161415612f2257600060019250925050612f2b565b80600092509250505b94509492505050565b60008060007f7fffffffffffffffffffffffffffffffffffffffffffffffffffffffffffffff60001b841690506000601b60ff8660001c901c612f77919061443b565b9050612f8587828885612e27565b935093505050935093915050565b828054612f9f906145c3565b90600052602060002090601f016020900481019282612fc15760008555613008565b82601f10612fda57805160ff1916838001178555613008565b82800160010185558215613008579182015b82811115613007578251825591602001919060010190612fec565b5b509050613015919061309f565b5090565b828054613025906145c3565b90600052602060002090601f016020900481019282613047576000855561308e565b82601f1061306057803560ff191683800117855561308e565b8280016001018555821561308e579182015b8281111561308d578235825591602001919060010190613072565b5b50905061309b919061309f565b5090565b5b808211156130b85760008160009055506001016130a0565b5090565b60006130cf6130ca8461431c565b6142f7565b905080838252602082019050828560208602820111156130f2576130f16147ce565b5b60005b8581101561312257816131088882613390565b8452602084019350602083019250506001810190506130f5565b5050509392505050565b600061313f61313a84614348565b6142f7565b90508281526020810184848401111561315b5761315a6147d3565b5b613166848285614581565b509392505050565b600061318161317c84614379565b6142f7565b90508281526020810184848401111561319d5761319c6147d3565b5b6131a8848285614581565b509392505050565b6000813590506131bf81614ef2565b92915050565b60008083601f8401126131db576131da6147c9565b5b8235905067ffffffffffffffff8111156131f8576131f76147c4565b5b602083019150836020820283011115613214576132136147ce565b5b9250929050565b600082601f8301126132305761322f6147c9565b5b81356132408482602086016130bc565b91505092915050565b60008135905061325881614f09565b92915050565b60008135905061326d81614f20565b92915050565b60008151905061328281614f20565b92915050565b60008083601f84011261329e5761329d6147c9565b5b8235905067ffffffffffffffff8111156132bb576132ba6147c4565b5b6020830191508360018202830111156132d7576132d66147ce565b5b9250929050565b600082601f8301126132f3576132f26147c9565b5b813561330384826020860161312c565b91505092915050565b60008083601f840112613322576133216147c9565b5b8235905067ffffffffffffffff81111561333f5761333e6147c4565b5b60208301915083600182028301111561335b5761335a6147ce565b5b9250929050565b600082601f830112613377576133766147c9565b5b813561338784826020860161316e565b91505092915050565b60008135905061339f81614f37565b92915050565b6000602082840312156133bb576133ba6147dd565b5b60006133c9848285016131b0565b91505092915050565b600080604083850312156133e9576133e86147dd565b5b60006133f7858286016131b0565b9250506020613408858286016131b0565b9150509250929050565b60008060006060848603121561342b5761342a6147dd565b5b6000613439868287016131b0565b935050602061344a868287016131b0565b925050604084013567ffffffffffffffff81111561346b5761346a6147d8565b5b6134778682870161321b565b9150509250925092565b6000806000806080858703121561349b5761349a6147dd565b5b60006134a9878288016131b0565b94505060206134ba878288016131b0565b935050604085013567ffffffffffffffff8111156134db576134da6147d8565b5b6134e78782880161321b565b925050606085013567ffffffffffffffff811115613508576135076147d8565b5b613514878288016132de565b91505092959194509250565b600080600060608486031215613539576135386147dd565b5b6000613547868287016131b0565b9350506020613558868287016131b0565b925050604061356986828701613390565b9150509250925092565b6000806000806080858703121561358d5761358c6147dd565b5b600061359b878288016131b0565b94505060206135ac878288016131b0565b93505060406135bd87828801613390565b925050606085013567ffffffffffffffff8111156135de576135dd6147d8565b5b6135ea878288016132de565b91505092959194509250565b60008060006040848603121561360f5761360e6147dd565b5b600061361d868287016131b0565b935050602084013567ffffffffffffffff81111561363e5761363d6147d8565b5b61364a868287016131c5565b92509250509250925092565b6000806040838503121561366d5761366c6147dd565b5b600061367b858286016131b0565b925050602061368c85828601613249565b9150509250929050565b600080604083850312156136ad576136ac6147dd565b5b60006136bb858286016131b0565b92505060206136cc85828601613390565b9150509250929050565b6000602082840312156136ec576136eb6147dd565b5b60006136fa84828501613249565b91505092915050565b600060208284031215613719576137186147dd565b5b60006137278482850161325e565b91505092915050565b600060208284031215613746576137456147dd565b5b600061375484828501613273565b91505092915050565b60008060208385031215613774576137736147dd565b5b600083013567ffffffffffffffff811115613792576137916147d8565b5b61379e8582860161330c565b92509250509250929050565b6000602082840312156137c0576137bf6147dd565b5b600082013567ffffffffffffffff8111156137de576137dd6147d8565b5b6137ea84828501613362565b91505092915050565b600060208284031215613809576138086147dd565b5b600061381784828501613390565b91505092915050565b600080600060408486031215613839576138386147dd565b5b600061384786828701613390565b935050602084013567ffffffffffffffff811115613868576138676147d8565b5b61387486828701613288565b92509250509250925092565b600061388c8383613e0d565b60208301905092915050565b6138a1816144f6565b82525050565b60006138b2826143cf565b6138bc81856143fd565b93506138c7836143aa565b8060005b838110156138f85781516138df8882613880565b97506138ea836143f0565b9250506001810190506138cb565b5085935050505092915050565b61390e81614508565b82525050565b61391d81614514565b82525050565b61393461392f82614514565b61466f565b82525050565b6000613945826143da565b61394f818561440e565b935061395f818560208601614590565b613968816147e2565b840191505092915050565b600061397e826143e5565b613988818561441f565b9350613998818560208601614590565b6139a1816147e2565b840191505092915050565b60006139b7826143e5565b6139c18185614430565b93506139d1818560208601614590565b80840191505092915050565b600081546139ea816145c3565b6139f48186614430565b94506001821660008114613a0f5760018114613a2057613a53565b60ff19831686528186019350613a53565b613a29856143ba565b60005b83811015613a4b57815481890152600182019150602081019050613a2c565b838801955050505b50505092915050565b6000613a6960188361441f565b9150613a74826147f3565b602082019050919050565b6000613a8c60188361441f565b9150613a978261481c565b602082019050919050565b6000613aaf601f8361441f565b9150613aba82614845565b602082019050919050565b6000613ad2601c83614430565b9150613add8261486e565b601c82019050919050565b6000613af5602b8361441f565b9150613b0082614897565b604082019050919050565b6000613b1860328361441f565b9150613b23826148e6565b604082019050919050565b6000613b3b60268361441f565b9150613b4682614935565b604082019050919050565b6000613b5e60218361441f565b9150613b6982614984565b604082019050919050565b6000613b8160178361441f565b9150613b8c826149d3565b602082019050919050565b6000613ba460248361441f565b9150613baf826149fc565b604082019050919050565b6000613bc760198361441f565b9150613bd282614a4b565b602082019050919050565b6000613bea60228361441f565b9150613bf582614a74565b604082019050919050565b6000613c0d60148361441f565b9150613c1882614ac3565b602082019050919050565b6000613c30602c8361441f565b9150613c3b82614aec565b604082019050919050565b6000613c5360388361441f565b9150613c5e82614b3b565b604082019050919050565b6000613c76602b8361441f565b9150613c8182614b8a565b604082019050919050565b6000613c99602a8361441f565b9150613ca482614bd9565b604082019050919050565b6000613cbc60298361441f565b9150613cc782614c28565b604082019050919050565b6000613cdf60228361441f565b9150613cea82614c77565b604082019050919050565b6000613d0260228361441f565b9150613d0d82614cc6565b604082019050919050565b6000613d25602c8361441f565b9150613d3082614d15565b604082019050919050565b6000613d4860208361441f565b9150613d5382614d64565b602082019050919050565b6000613d6b60298361441f565b9150613d7682614d8d565b604082019050919050565b6000613d8e60158361441f565b9150613d9982614ddc565b602082019050919050565b6000613db160218361441f565b9150613dbc82614e05565b604082019050919050565b6000613dd460318361441f565b9150613ddf82614e54565b604082019050919050565b6000613df7602c8361441f565b9150613e0282614ea3565b604082019050919050565b613e168161456a565b82525050565b613e258161456a565b82525050565b613e3481614574565b82525050565b6000613e4682866139ac565b9150613e5282856139ac565b9150613e5e82846139dd565b9150819050949350505050565b6000613e7682613ac5565b9150613e828284613923565b60208201915081905092915050565b6000602082019050613ea66000830184613898565b92915050565b6000608082019050613ec16000830187613898565b613ece6020830186613898565b613edb6040830185613e1c565b8181036060830152613eed818461393a565b905095945050505050565b60006020820190508181036000830152613f1281846138a7565b905092915050565b6000602082019050613f2f6000830184613905565b92915050565b6000608082019050613f4a6000830187613914565b613f576020830186613e2b565b613f646040830185613914565b613f716060830184613914565b95945050505050565b60006020820190508181036000830152613f948184613973565b905092915050565b60006020820190508181036000830152613fb581613a5c565b9050919050565b60006020820190508181036000830152613fd581613a7f565b9050919050565b60006020820190508181036000830152613ff581613aa2565b9050919050565b6000602082019050818103600083015261401581613ae8565b9050919050565b6000602082019050818103600083015261403581613b0b565b9050919050565b6000602082019050818103600083015261405581613b2e565b9050919050565b6000602082019050818103600083015261407581613b51565b9050919050565b6000602082019050818103600083015261409581613b74565b9050919050565b600060208201905081810360008301526140b581613b97565b9050919050565b600060208201905081810360008301526140d581613bba565b9050919050565b600060208201905081810360008301526140f581613bdd565b9050919050565b6000602082019050818103600083015261411581613c00565b9050919050565b6000602082019050818103600083015261413581613c23565b9050919050565b6000602082019050818103600083015261415581613c46565b9050919050565b6000602082019050818103600083015261417581613c69565b9050919050565b6000602082019050818103600083015261419581613c8c565b9050919050565b600060208201905081810360008301526141b581613caf565b9050919050565b600060208201905081810360008301526141d581613cd2565b9050919050565b600060208201905081810360008301526141f581613cf5565b9050919050565b6000602082019050818103600083015261421581613d18565b9050919050565b6000602082019050818103600083015261423581613d3b565b9050919050565b6000602082019050818103600083015261425581613d5e565b9050919050565b6000602082019050818103600083015261427581613d81565b9050919050565b6000602082019050818103600083015261429581613da4565b9050919050565b600060208201905081810360008301526142b581613dc7565b9050919050565b600060208201905081810360008301526142d581613dea565b9050919050565b60006020820190506142f16000830184613e1c565b92915050565b6000614301614312565b905061430d82826145f5565b919050565b6000604051905090565b600067ffffffffffffffff82111561433757614336614795565b5b602082029050602081019050919050565b600067ffffffffffffffff82111561436357614362614795565b5b61436c826147e2565b9050602081019050919050565b600067ffffffffffffffff82111561439457614393614795565b5b61439d826147e2565b9050602081019050919050565b6000819050602082019050919050565b60008190508160005260206000209050919050565b600081519050919050565b600081519050919050565b600081519050919050565b6000602082019050919050565b600082825260208201905092915050565b600082825260208201905092915050565b600082825260208201905092915050565b600081905092915050565b60006144468261456a565b91506144518361456a565b9250827fffffffffffffffffffffffffffffffffffffffffffffffffffffffffffffffff03821115614486576144856146aa565b5b828201905092915050565b600061449c8261456a565b91506144a78361456a565b9250826144b7576144b66146d9565b5b828204905092915050565b60006144cd8261456a565b91506144d88361456a565b9250828210156144eb576144ea6146aa565b5b828203905092915050565b60006145018261454a565b9050919050565b60008115159050919050565b6000819050919050565b60007fffffffff0000000000000000000000000000000000000000000000000000000082169050919050565b600073ffffffffffffffffffffffffffffffffffffffff82169050919050565b6000819050919050565b600060ff82169050919050565b82818337600083830152505050565b60005b838110156145ae578082015181840152602081019050614593565b838111156145bd576000848401525b50505050565b600060028204905060018216806145db57607f821691505b602082108114156145ef576145ee614737565b5b50919050565b6145fe826147e2565b810181811067ffffffffffffffff8211171561461d5761461c614795565b5b80604052505050565b60006146318261456a565b91507fffffffffffffffffffffffffffffffffffffffffffffffffffffffffffffffff821415614664576146636146aa565b5b600182019050919050565b6000819050919050565b60006146848261456a565b915061468f8361456a565b92508261469f5761469e6146d9565b5b828206905092915050565b7f4e487b7100000000000000000000000000000000000000000000000000000000600052601160045260246000fd5b7f4e487b7100000000000000000000000000000000000000000000000000000000600052601260045260246000fd5b7f4e487b7100000000000000000000000000000000000000000000000000000000600052602160045260246000fd5b7f4e487b7100000000000000000000000000000000000000000000000000000000600052602260045260246000fd5b7f4e487b7100000000000000000000000000000000000000000000000000000000600052603260045260246000fd5b7f4e487b7100000000000000000000000000000000000000000000000000000000600052604160045260246000fd5b600080fd5b600080fd5b600080fd5b600080fd5b600080fd5b600080fd5b6000601f19601f8301169050919050565b7f45434453413a20696e76616c6964207369676e61747572650000000000000000600082015250565b7f5369676e65722061646472657373206d69736d617463682e0000000000000000600082015250565b7f45434453413a20696e76616c6964207369676e6174757265206c656e67746800600082015250565b7f19457468657265756d205369676e6564204d6573736167653a0a333200000000600082015250565b7f455243373231456e756d657261626c653a206f776e657220696e646578206f7560008201527f74206f6620626f756e6473000000000000000000000000000000000000000000602082015250565b7f4552433732313a207472616e7366657220746f206e6f6e20455243373231526560008201527f63656976657220696d706c656d656e7465720000000000000000000000000000602082015250565b7f4f776e61626c653a206e6577206f776e657220697320746865207a65726f206160008201527f6464726573730000000000000000000000000000000000000000000000000000602082015250565b7f45786365656473207768697465206c697374206d696e7420416c6c6f77616e6360008201527f6500000000000000000000000000000000000000000000000000000000000000602082015250565b7f5472616e73666572206973206e6f7420616c6c6f776564000000000000000000600082015250565b7f4552433732313a207472616e7366657220746f20746865207a65726f2061646460008201527f7265737300000000000000000000000000000000000000000000000000000000602082015250565b7f4552433732313a20617070726f766520746f2063616c6c657200000000000000600082015250565b7f45434453413a20696e76616c6964207369676e6174757265202773272076616c60008201527f7565000000000000000000000000000000000000000000000000000000000000602082015250565b7f546f6b656e20646f6573206e6f74206578697374000000000000000000000000600082015250565b7f4552433732313a206f70657261746f7220717565727920666f72206e6f6e657860008201527f697374656e7420746f6b656e0000000000000000000000000000000000000000602082015250565b7f4552433732313a20617070726f76652063616c6c6572206973206e6f74206f7760008201527f6e6572206e6f7220617070726f76656420666f7220616c6c0000000000000000602082015250565b7f536f7272792c207468697320776f756c6420657863656564206d6178696d756d60008201527f2043617665206d696e7473000000000000000000000000000000000000000000602082015250565b7f4552433732313a2062616c616e636520717565727920666f7220746865207a6560008201527f726f206164647265737300000000000000000000000000000000000000000000602082015250565b7f4552433732313a206f776e657220717565727920666f72206e6f6e657869737460008201527f656e7420746f6b656e0000000000000000000000000000000000000000000000602082015250565b7f6d696e74696e67206973206e6f742063757272656e746c7920617661696c616260008201527f6c65000000000000000000000000000000000000000000000000000000000000602082015250565b7f45434453413a20696e76616c6964207369676e6174757265202776272076616c60008201527f7565000000000000000000000000000000000000000000000000000000000000602082015250565b7f4552433732313a20617070726f76656420717565727920666f72206e6f6e657860008201527f697374656e7420746f6b656e0000000000000000000000000000000000000000602082015250565b7f4f776e61626c653a2063616c6c6572206973206e6f7420746865206f776e6572600082015250565b7f4552433732313a207472616e73666572206f6620746f6b656e2074686174206960008201527f73206e6f74206f776e0000000000000000000000000000000000000000000000602082015250565b7f4e6f7420617070726f76656420746f206275726e2e0000000000000000000000600082015250565b7f4552433732313a20617070726f76616c20746f2063757272656e74206f776e6560008201527f7200000000000000000000000000000000000000000000000000000000000000602082015250565b7f4552433732313a207472616e736665722063616c6c6572206973206e6f74206f60008201527f776e6572206e6f7220617070726f766564000000000000000000000000000000602082015250565b7f455243373231456e756d657261626c653a20676c6f62616c20696e646578206f60008201527f7574206f6620626f756e64730000000000000000000000000000000000000000602082015250565b614efb816144f6565b8114614f0657600080fd5b50565b614f1281614508565b8114614f1d57600080fd5b50565b614f298161451e565b8114614f3457600080fd5b50565b614f408161456a565b8114614f4b57600080fd5b5056fea26469706673582212204a7465a047f41ac912909ef46e60e7979e8b3b391023c939d0eb913e9e43cde864736f6c63430008070033",
  "linkReferences": {},
  "deployedLinkReferences": {}
}